:100000000EC00DC235C126C025C024C023C022C0E9
:1000100021C020C01FC01EC01DC01CC01BC0112499
:100020001FBECFE5D1E0DEBFCDBF10E0A0E6B0E05F
:10003000E8E8F5E002C005900D92A236B107D9F7C5
:1000400010E0A2E6B0E001C01D92A336B107E1F7CF
:10005000BAD198C2D5CFC39885E08A95F1F7C39AF3
:1000600085E38A95F1F70895C39885E38A95F1F7BA
:10007000C39A8AE68A95F1F70895BB9AC39A0895C0
:1000800090E035E32AE6C398832F8A95F1F7C39A67
:10009000822F8A95F1F79F5F9830A9F7C39885E37F
:1000A0008A95F1F7C39A8AE68A95F1F7089585E073
:1000B00083BF12BE0895AF92BF92CF92DF92EF92AC
:1000C000FF921F93CF93DF9310E025E0A22EB12C77
:1000D00091E0E92EF12C88ECC82ED12C22C0C5016C
:1000E0008C1B9D0B970102C0220F331F8A95E2F7EC
:1000F000C90197010C2E02C0220F331F0A94E2F7A8
:10010000822BBEDF80ED97E0F6013197F1F7019782
:10011000D9F721973FEFCF3FD30709F71F5F133080
:1001200019F0C2E0D0E0DBCF80E0AADFDF91CF9111
:100130001F91FF90EF90DF90CF90BF90AF90089508
:10014000AF92BF92CF92DF92EF92FF921F93CF9325
:10015000DF9310E055E0A52EB12C41E0E42EF12C08
:1001600038ECC32ED12C21C0C5018C1B9D0B9701EF
:1001700002C0220F331F8A95E2F7C90197010C2EA6
:1001800002C0220F331F0A94E2F7822B79DF80ED41
:1001900097E0F6013197F1F70197D9F72196C3302F
:1001A000D10511F71F5F133019F0C0E0D0E0DCCFAC
:1001B00080E066DFDF91CF911F91FF90EF90DF909D
:1001C000CF90BF90AF900895BBDFC09810926000B1
:1001D00080E285BF85B7806185BF78948895F89463
:1001E000089581E04DDF80ED97E028EC30E0F901E3
:1001F0003197F1F70197D9F780E042DF80ED97E082
:1002000028EC30E0F9013197F1F70197D9F708951B
:1002100080E036DF0895CF92DF92EF92FF921F9336
:10022000CF93DF9310E0C0E0D0E071E0C72ED12C77
:1002300068ECE62EF12CC6010C2E02C0880F991F27
:100240000A94E2F7182B812F1BDF88EB9BE0F70164
:100250003197F1F70197D9F72196C630D10559F7B3
:10026000DF91CF911F91FF90EF90DF90CF90089595
:100270001F920F920FB60F9211242F933F934F931B
:100280005F936F937F938F939F93AF93BF93EF93FE
:10029000FF93B19B16C080916000882331F01092CB
:1002A0006000C0984DDF01C0B6DFB199FDCFB0DF6F
:1002B00085B7806285BF85B7806185BF7894889552
:1002C000F894FF91EF91BF91AF919F918F917F91A2
:1002D0006F915F914F913F912F910F900FBE0F90B3
:1002E0001F90189520E030E040E060E177E2CB011C
:1002F0000197F1F7369A349BFECF349A84B195B1C9
:10030000280F391F4F5F433091F7C90163E070E058
:10031000F0D0CB010895E6DFA0E0B0E0BC01CD0154
:1003200028E73CE449E050E0CBD0EAE09695879599
:1003300077956795EA95D1F720E137E240E050E004
:10034000FFD0822F0895809162008A3218F089E2EE
:10035000809362002091620089E290E0821B910903
:1003600062E070E0DAD0673008F066E046E0461BF5
:1003700030E020E061E070E009C0CB01022E02C055
:10038000880F991F0A94E2F7382B2F5F2417A8F3E0
:10039000832F76DE80E29EE428EC30E0F90131978D
:1003A000F1F70197D9F70895C09AB5DF80936200FD
:1003B00082DE81E080936000C6DF809162008C3134
:1003C00008F402DF0895CF93DF93BB9AC39AB89ADB
:1003D000B998C19883E886B982E887B9A49ABA988F
:1003E000C29A8BB780668BBF82E085BB7894DCDFD6
:1003F0000FDFC8ECD0E078948EDF809362008B3101
:1004000050F4F89480E197E2FE013197F1F70197FB
:10041000D9F7DADEF0CF8D3170F7E3DEECCF1F9243
:100420000F920FB60F9211242F933F934F935F9328
:100430006F937F938F939F93AF93BF93EF93FF93AC
:1004400085E083BF12BE90E007C008B601FEFDCF75
:100450009F5F88B7826088BFB29902C09436A9F7BF
:10046000892F8650813488F480916000813011F4A6
:100470006ADF14C0882391F480E285BF85B780616C
:1004800085BF78948895F8940AC09F3538F080919C
:100490006000882311F098DE01C086DFB9DEFF918D
:1004A000EF91BF91AF919F918F917F916F915F91EC
:1004B0004F913F912F910F900FBE0F901F90189565
:1004C000FF27EE27BB27AA2760FF04C0A20FB31F98
:1004D000E41FF51F220F331F441F551F9695879564
:1004E0007795679589F70097760771F7CF01BD017A
:1004F0000895AA1BBB1B51E107C0AA1FBB1FA6176B
:10050000B70710F0A61BB70B881F991F5A95A9F7BC
:1005100080959095BC01CD01089597FB092E072683
:100520000AD077FD04D0E5DF06D000201AF47095DC
:1005300061957F4F0895F6F7909581959F4F0895A7
:10054000A1E21A2EAA1BBB1BFD010DC0AA1FBB1FD7
:10055000EE1FFF1FA217B307E407F50720F0A21B49
:10056000B30BE40BF50B661F771F881F991F1A94B6
:1005700069F760957095809590959B01AC01BD01E0
:08058000CF010895F894FFCFAC
:02058800010070
:00000001FF
